{
  "contractName": "Balance",
  "abi": [
    {
      "constant": true,
      "inputs": [],
      "name": "balance",
      "outputs": [
        {
          "internalType": "uint256",
          "name": "",
          "type": "uint256"
        }
      ],
      "payable": false,
      "stateMutability": "view",
      "type": "function"
    },
    {
      "constant": true,
      "inputs": [],
      "name": "getBalance",
      "outputs": [
        {
          "internalType": "uint256",
          "name": "",
          "type": "uint256"
        }
      ],
      "payable": false,
      "stateMutability": "view",
      "type": "function"
    },
    {
      "constant": true,
      "inputs": [
        {
          "internalType": "uint256",
          "name": "amount",
          "type": "uint256"
        }
      ],
      "name": "Deposit",
      "outputs": [
        {
          "internalType": "uint256",
          "name": "",
          "type": "uint256"
        }
      ],
      "payable": false,
      "stateMutability": "view",
      "type": "function"
    },
    {
      "constant": true,
      "inputs": [
        {
          "internalType": "uint256",
          "name": "amount",
          "type": "uint256"
        }
      ],
      "name": "Withdraw",
      "outputs": [
        {
          "internalType": "uint256",
          "name": "",
          "type": "uint256"
        }
      ],
      "payable": false,
      "stateMutability": "view",
      "type": "function"
    }
  ],
  "bytecode": "0x608060405261138860005534801561001657600080fd5b50610171806100266000396000f3fe608060405234801561001057600080fd5b506004361061004c5760003560e01c806312065fe0146100515780634d6ce1e51461006f5780635b6b431d146100b1578063b69ef8a8146100f3575b600080fd5b610059610111565b6040518082815260200191505060405180910390f35b61009b6004803603602081101561008557600080fd5b810190808035906020019092919050505061011a565b6040518082815260200191505060405180910390f35b6100dd600480360360208110156100c757600080fd5b8101908080359060200190929190505050610128565b6040518082815260200191505060405180910390f35b6100fb610136565b6040518082815260200191505060405180910390f35b60008054905090565b600081600054019050919050565b600081600054039050919050565b6000548156fea265627a7a72315820642fe26c8cf550368c0941fac5ce81512a974f9fb7b46a9f4245bc95c86139ab64736f6c63430005100032",
  "source": "// SPDX-License-Identifier: MIT\npragma solidity >=0.4.22 <0.9.0;\n\ncontract Balance {\nuint public balance = 5000;\n\nfunction getBalance() public view returns(uint){\n    return balance ;\n}\n\nfunction Deposit(uint amount) public view returns(uint){\n    return balance + amount;\n}\nfunction Withdraw(uint amount) public view returns(uint){\n    return balance - amount;\n}\n}",
  "sourcePath": "/Users/akshaymaru/Desktop/ethereum-test/contracts/Balance.sol",
  "compiler": {
    "name": "solc",
    "version": "0.5.16+commit.9c3226ce.Emscripten.clang"
  },
  "schemaVersion": "3.4.3",
  "updatedAt": "2021-08-20T04:40:24.803Z",
  "networkType": "ethereum",
  "devdoc": {
    "methods": {}
  },
  "userdoc": {
    "methods": {}
  }
}