{
  "contractName": "Data",
  "abi": [
    {
      "constant": true,
      "inputs": [],
      "name": "balance",
      "outputs": [
        {
          "internalType": "uint256",
          "name": "",
          "type": "uint256"
        }
      ],
      "payable": false,
      "stateMutability": "view",
      "type": "function"
    },
    {
      "constant": true,
      "inputs": [],
      "name": "getBalance",
      "outputs": [
        {
          "internalType": "uint256",
          "name": "",
          "type": "uint256"
        }
      ],
      "payable": false,
      "stateMutability": "view",
      "type": "function"
    },
    {
      "constant": false,
      "inputs": [
        {
          "internalType": "uint256",
          "name": "amount",
          "type": "uint256"
        }
      ],
      "name": "Deposit",
      "outputs": [
        {
          "internalType": "uint256",
          "name": "",
          "type": "uint256"
        }
      ],
      "payable": false,
      "stateMutability": "nonpayable",
      "type": "function"
    },
    {
      "constant": false,
      "inputs": [
        {
          "internalType": "uint256",
          "name": "amount",
          "type": "uint256"
        }
      ],
      "name": "Withdraw",
      "outputs": [
        {
          "internalType": "uint256",
          "name": "",
          "type": "uint256"
        }
      ],
      "payable": false,
      "stateMutability": "nonpayable",
      "type": "function"
    }
  ],
  "bytecode": "0x608060405261138860005534801561001657600080fd5b50610183806100266000396000f3fe608060405234801561001057600080fd5b506004361061004c5760003560e01c806312065fe0146100515780634d6ce1e51461006f5780635b6b431d146100b1578063b69ef8a8146100f3575b600080fd5b610059610111565b6040518082815260200191505060405180910390f35b61009b6004803603602081101561008557600080fd5b810190808035906020019092919050505061011a565b6040518082815260200191505060405180910390f35b6100dd600480360360208110156100c757600080fd5b8101908080359060200190929190505050610131565b6040518082815260200191505060405180910390f35b6100fb610148565b6040518082815260200191505060405180910390f35b60008054905090565b600081600080828254019250508190559050919050565b600081600080828254039250508190559050919050565b6000548156fea265627a7a72315820c961865b82d316afef79467a144feb252a0ff844d21a7ae55c5e5ddedf5bf10464736f6c63430005100032",
  "source": "// SPDX-License-Identifier: MIT\npragma solidity >=0.4.22 <0.9.0;\n\ncontract Data {\nuint public balance = 5000;\n\nfunction getBalance() public view returns(uint){\n    return balance;\n}\nfunction Deposit(uint amount) public returns(uint){\n    return balance+= amount;\n}\nfunction Withdraw(uint amount) public returns(uint){\n    return balance-= amount;\n}\n}",
  "sourcePath": "/Users/akshaymaru/Desktop/works/ethereum-test/contracts/Data.sol",
  "compiler": {
    "name": "solc",
    "version": "0.5.16+commit.9c3226ce.Emscripten.clang"
  },
  "schemaVersion": "3.4.3",
  "updatedAt": "2021-09-08T09:37:04.118Z",
  "devdoc": {
    "methods": {}
  },
  "userdoc": {
    "methods": {}
  }
}