{
  "contractName": "DonkeyCoin",
  "abi": [
    {
      "constant": true,
      "inputs": [],
      "name": "User",
      "outputs": [
        {
          "internalType": "address",
          "name": "",
          "type": "address"
        }
      ],
      "payable": false,
      "stateMutability": "view",
      "type": "function"
    },
    {
      "constant": true,
      "inputs": [],
      "name": "donkeyCoin",
      "outputs": [
        {
          "internalType": "string",
          "name": "tokenName",
          "type": "string"
        },
        {
          "internalType": "string",
          "name": "tokenSymbol",
          "type": "string"
        },
        {
          "internalType": "uint256",
          "name": "tokens",
          "type": "uint256"
        }
      ],
      "payable": false,
      "stateMutability": "view",
      "type": "function"
    },
    {
      "constant": false,
      "inputs": [
        {
          "internalType": "uint256",
          "name": "_tokens",
          "type": "uint256"
        }
      ],
      "name": "setTokens",
      "outputs": [],
      "payable": false,
      "stateMutability": "nonpayable",
      "type": "function"
    },
    {
      "constant": false,
      "inputs": [],
      "name": "seeTokens",
      "outputs": [
        {
          "internalType": "uint256",
          "name": "",
          "type": "uint256"
        }
      ],
      "payable": false,
      "stateMutability": "nonpayable",
      "type": "function"
    },
    {
      "constant": false,
      "inputs": [
        {
          "internalType": "uint256",
          "name": "_tokens",
          "type": "uint256"
        },
        {
          "internalType": "address",
          "name": "_address",
          "type": "address"
        }
      ],
      "name": "getTokenFree",
      "outputs": [],
      "payable": true,
      "stateMutability": "payable",
      "type": "function"
    }
  ],
  "bytecode": "0x608060405233600460006101000a81548173ffffffffffffffffffffffffffffffffffffffff021916908373ffffffffffffffffffffffffffffffffffffffff160217905550735b38da6a701c568545dcfcb03fcb875f56beddc4600560006101000a81548173ffffffffffffffffffffffffffffffffffffffff021916908373ffffffffffffffffffffffffffffffffffffffff1602179055503480156100a657600080fd5b5061069b806100b66000396000f3fe60806040526004361061004a5760003560e01c806301a68a941461004f5780631429e26c1461015257806329fcea7b146101a95780632c014a9d146101f75780634317f54814610232575b600080fd5b34801561005b57600080fd5b5061006461025d565b604051808060200180602001848152602001838103835286818151815260200191508051906020019080838360005b838110156100ae578082015181840152602081019050610093565b50505050905090810190601f1680156100db5780820380516001836020036101000a031916815260200191505b50838103825285818151815260200191508051906020019080838360005b838110156101145780820151818401526020810190506100f9565b50505050905090810190601f1680156101415780820380516001836020036101000a031916815260200191505b509550505050505060405180910390f35b34801561015e57600080fd5b506101676103a5565b604051808273ffffffffffffffffffffffffffffffffffffffff1673ffffffffffffffffffffffffffffffffffffffff16815260200191505060405180910390f35b6101f5600480360360408110156101bf57600080fd5b8101908080359060200190929190803573ffffffffffffffffffffffffffffffffffffffff1690602001909291905050506103cb565b005b34801561020357600080fd5b506102306004803603602081101561021a57600080fd5b8101908080359060200190929190505050610426565b005b34801561023e57600080fd5b506102476105b5565b6040518082815260200191505060405180910390f35b6000806000018054600181600116156101000203166002900480601f0160208091040260200160405190810160405280929190818152602001828054600181600116156101000203166002900480156102f75780601f106102cc576101008083540402835291602001916102f7565b820191906000526020600020905b8154815290600101906020018083116102da57829003601f168201915b505050505090806001018054600181600116156101000203166002900480601f0160208091040260200160405190810160405280929190818152602001828054600181600116156101000203166002900480156103955780601f1061036a57610100808354040283529160200191610395565b820191906000526020600020905b81548152906001019060200180831161037857829003601f168201915b5050505050908060020154905083565b600460009054906101000a900473ffffffffffffffffffffffffffffffffffffffff1681565b81600360008373ffffffffffffffffffffffffffffffffffffffff1673ffffffffffffffffffffffffffffffffffffffff16815260200190815260200160002081905550816000600201600082825403925050819055505050565b600560009054906101000a900473ffffffffffffffffffffffffffffffffffffffff1673ffffffffffffffffffffffffffffffffffffffff16600460009054906101000a900473ffffffffffffffffffffffffffffffffffffffff1673ffffffffffffffffffffffffffffffffffffffff161461050b576040517f08c379a00000000000000000000000000000000000000000000000000000000081526004018080602001828103825260158152602001807f796f7520617265206e6f742076616c696461746564000000000000000000000081525060200191505060405180910390fd5b6040518060400160405280600a81526020017f446f6e6b6579436f696e000000000000000000000000000000000000000000008152506000800190805190602001906105589291906105c1565b506040518060400160405280600381526020017f444b430000000000000000000000000000000000000000000000000000000000815250600060010190805190602001906105a79291906105c1565b508060006002018190555050565b60008060020154905090565b828054600181600116156101000203166002900490600052602060002090601f016020900481019282601f1061060257805160ff1916838001178555610630565b82800160010185558215610630579182015b8281111561062f578251825591602001919060010190610614565b5b50905061063d9190610641565b5090565b61066391905b8082111561065f576000816000905550600101610647565b5090565b9056fea265627a7a72315820d47cc8583190918e31d9372a332c3b25e8d7c6f2a54be13833ed7cd36788a57b64736f6c63430005100032",
  "source": "// SPDX-License-Identifier: GPL-3.0\n// contracts/Tokens.sol\npragma solidity >=0.4.22 <0.9.0;\n\n\ncontract DonkeyCoin{\n    \n     struct Tokens {\n           string tokenName;\n           string tokenSymbol;\n            uint tokens  ;         \n        }\n         Tokens public donkeyCoin ;\n         \n          mapping(address=> uint) user;\n          modifier onlyOwner {\n              require(User == owner , 'you are not validated');\n              _;\n          }\n    address public User = msg.sender;\n    address private owner =0x5B38Da6a701c568545dCfcB03FcB875f56beddC4;\n    \n    function setTokens(uint _tokens)public onlyOwner   {\n       \n        donkeyCoin.tokenName = 'DonkeyCoin';\n        donkeyCoin.tokenSymbol = 'DKC';\n        donkeyCoin.tokens= _tokens;\n    }\n    \n   function seeTokens() public returns(uint){\n       return donkeyCoin.tokens;\n   }\n    function getTokenFree(uint _tokens, address _address) public payable{\n        user[_address] = _tokens;\n        donkeyCoin.tokens -= _tokens;\n    }\n}\n\n",
  "sourcePath": "/Users/akshaymaru/Desktop/works/ethereum-test/contracts/DonkeyCoin.sol",
  "compiler": {
    "name": "solc",
    "version": "0.5.16+commit.9c3226ce.Emscripten.clang"
  },
  "schemaVersion": "3.4.3",
  "updatedAt": "2021-09-08T09:39:41.469Z",
  "networkType": "ethereum",
  "devdoc": {
    "methods": {}
  },
  "userdoc": {
    "methods": {}
  }
}