{
  "contractName": "newContract",
  "abi": [
    {
      "constant": true,
      "inputs": [],
      "name": "token",
      "outputs": [
        {
          "internalType": "uint256",
          "name": "",
          "type": "uint256"
        }
      ],
      "payable": false,
      "stateMutability": "view",
      "type": "function"
    },
    {
      "constant": true,
      "inputs": [],
      "name": "getToken",
      "outputs": [
        {
          "internalType": "uint256",
          "name": "",
          "type": "uint256"
        }
      ],
      "payable": false,
      "stateMutability": "view",
      "type": "function"
    },
    {
      "constant": false,
      "inputs": [],
      "name": "addTokens",
      "outputs": [
        {
          "internalType": "uint256",
          "name": "",
          "type": "uint256"
        }
      ],
      "payable": false,
      "stateMutability": "nonpayable",
      "type": "function"
    },
    {
      "constant": false,
      "inputs": [],
      "name": "deleteTokens",
      "outputs": [],
      "payable": false,
      "stateMutability": "nonpayable",
      "type": "function"
    }
  ],
  "bytecode": "0x608060405261c35060005534801561001657600080fd5b50610116806100266000396000f3fe6080604052348015600f57600080fd5b506004361060465760003560e01c806321df0da714604b57806349b87152146067578063d5f4f0b314606f578063fc0c546a14608b575b600080fd5b605160a7565b6040518082815260200191505060405180910390f35b606d60b0565b005b607560c4565b6040518082815260200191505060405180910390f35b609160db565b6040518082815260200191505060405180910390f35b60008054905090565b600080815480929190600190039190505550565b600080600081548092919060010191905055905090565b6000548156fea265627a7a723158202269f8b82b8492647b29c948575475fc499f132fe025293494670f5d16f40f1464736f6c63430005100032",
  "source": "// SPDX-License-Identifier: MIT\npragma solidity >=0.4.22 <0.9.0;\n\ncontract newContract {\n    uint public token = 50000;\n\n    function getToken() public view returns(uint) {\n        return token;\n    }\n    function addTokens() public  returns(uint) {\n       return token++;\n    }\n    function deleteTokens() public{\n        token--;\n    }\n}",
  "sourcePath": "/Users/akshaymaru/Desktop/ethereum-test/contracts/newContract.sol",
  "compiler": {
    "name": "solc",
    "version": "0.5.16+commit.9c3226ce.Emscripten.clang"
  },
  "schemaVersion": "3.4.3",
  "updatedAt": "2021-08-20T05:46:12.414Z",
  "networkType": "ethereum",
  "devdoc": {
    "methods": {}
  },
  "userdoc": {
    "methods": {}
  }
}