{
  "contractName": "ThirdContract",
  "abi": [
    {
      "constant": true,
      "inputs": [],
      "name": "data",
      "outputs": [
        {
          "internalType": "uint256",
          "name": "",
          "type": "uint256"
        }
      ],
      "payable": false,
      "stateMutability": "view",
      "type": "function"
    },
    {
      "constant": false,
      "inputs": [],
      "name": "getData",
      "outputs": [
        {
          "internalType": "uint256",
          "name": "",
          "type": "uint256"
        }
      ],
      "payable": true,
      "stateMutability": "payable",
      "type": "function"
    }
  ],
  "bytecode": "0x608060405261012c60005534801561001657600080fd5b5060b3806100256000396000f3fe60806040526004361060265760003560e01c80633bc5de3014602b57806373d4a13a146047575b600080fd5b6031606f565b6040518082815260200191505060405180910390f35b348015605257600080fd5b5060596078565b6040518082815260200191505060405180910390f35b60008054905090565b6000548156fea265627a7a723158204c27742e6ce5216b31d93fb16f3b2d94ec79691f157506f2b1144cdbaefd2b9064736f6c63430005100032",
  "source": "pragma solidity >=0.4.22 <0.9.0;\n\ncontract ThirdContract{\n   uint public data = 300;\n\n    function getData() public payable returns(uint) {\n            return data;\n    }\n\n}",
  "sourcePath": "/Users/akshaymaru/Desktop/works/ethereum-test/contracts/ThirdContract.sol",
  "compiler": {
    "name": "solc",
    "version": "0.5.16+commit.9c3226ce.Emscripten.clang"
  },
  "schemaVersion": "3.4.3",
  "updatedAt": "2021-09-08T09:37:04.121Z",
  "devdoc": {
    "methods": {}
  },
  "userdoc": {
    "methods": {}
  }
}